:10000000480200209D16000009170000111700008B
:100010001917000019170000191700000000000050
:1000200000000000000000000000000019170000A0
:100030001917000000000000191700001917000030
:1000400019170000191700001917000019170000F0
:1000500019170000191700001917000019170000E0
:1000600019170000191700001917000019170000D0
:1000700019170000191700001917000019170000C0
:1000800019170000191700001917000019170000B0
:1000900019170000191700001917000019170000A0
:1000A0001917000019170000191700001917000090
:1000B0001917000019170000191700001917000080
:1000C0001917000019170000191700001917000070
:1000D0001917000019170000191700001917000060
:1000E0001917000019170000191700001917000050
:1000F0001917000019170000191700001917000040
:10010000191700001917000019170000191700002F
:10011000191700001917000019170000191700001F
:10012000191700001917000019170000191700000F
:1001300019170000191700001917000019170000FF
:1001400000000000000000000000000000000000AF
:1001500019170000191700001917000019170000DF
:10016000000000000000000000000000000000008F
:10017000000000000000000000000000000000007F
:10018000000000000000000000000000000000006F
:10019000000000000000000000000000000000005F
:1001A000000000000000000000000000000000004F
:1001B000191700001917000019170000191700007F
:1001C000191700001917000019170000191700006F
:1001D000191700001917000019170000191700005F
:1001E000191700001917000019170000191700004F
:1001F000191700001917000019170000191700003F
:10020000191700001917000019170000000000005E
:10021000191700001917000019170000191700001E
:10022000191700001917000019170000191700000E
:1002300019170000191700001917000019170000FE
:1002400019170000191700001917000019170000EE
:1002500019170000191700001917000019170000DE
:1002600019170000191700001917000080B483B097
:1002700000AF164A154B1B6843F008031360134B7D
:100280001B687B60124A124B1B6823F0400313600B
:10029000104A104B1B6823F0706313600E4A0E4B1C
:1002A0001B6823F0400313600C4A0C4B1B6823F0BF
:1002B000400313600A4A0A4B1B6843F04003136073
:1002C00000BF0C37BD465DF8047B704708E10F4066
:1002D000287500402C7500400074004020740040D8
:1002E0001C75004080B483B000AF164A154B1B68E4
:1002F00043F008031360134B1B687B60124A124BD8
:100300001B6823F002031360104A104B1B6823F094
:10031000F00313600E4A0E4B1B6823F002031360B8
:100320000C4A0C4B1B6823F0020313600A4A0A4B69
:100330001B6843F00203136000BF0C37BD465DF835
:10034000047B704708E10F40287500402C75004081
:1003500000740040207400401C75004080B483B0DD
:1003600000AF164A154B1B6843F008031360134B8C
:100370001B687B60124A124B1B6823F00403136056
:10038000104A104B1B6823F4706313600E4A0E4B27
:100390001B6823F0040313600C4A0C4B1B6823F00A
:1003A000040313600A4A0A4B1B6843F004031360FA
:1003B00000BF0C37BD465DF8047B704708E10F4075
:1003C000287500402C7500400074004020740040E7
:1003D0001C75004080B483B000AF164A154B1B68F3
:1003E00043F008031360134B1B687B60124A124BE7
:1003F0001B6823F008031360104A104B1B6823F49A
:10040000704313600E4A0E4B1B6823F00803136001
:100410000C4A0C4B1B6823F0080313600A4A0A4B72
:100420001B6843F00803136000BF0C37BD465DF83E
:10043000047B704708E10F40287500402C75004090
:1004400000740040207400401C75004080B483B0EC
:1004500000AF164A154B1B6843F004031360134B9F
:100460001B687B60124A124B1B6823F01003136059
:10047000104A104B1B6823F4702313600E4A0E4B76
:100480001B6823F0100313600C4A0C4B1B6823F00D
:10049000100313600A4A0A4B1B6843F010031360F1
:1004A00000BF0C37BD465DF8047B704708E10F4084
:1004B000286500402C650040006400402064004036
:1004C0001C65004080B483B000AF164A154B1B6812
:1004D00043F004031360134B1B687B60124A124BFA
:1004E0001B6823F020031360104A104B1B6823F491
:1004F000700313600E4A0E4B1B6823F02003136039
:100500000C4A0C4B1B6823F0200313600A4A0A4B69
:100510001B6843F02003136000BF0C37BD465DF835
:10052000047B704708E10F40286500402C650040BF
:1005300000640040206400401C65004080B483B02B
:1005400000AF164A154B1B6843F004031360134BAE
:100550001B687B60124A124B1B6823F080031360F8
:10056000104A104B1B6823F0704313600E4A0E4B69
:100570001B6823F0800313600C4A0C4B1B6823F0AC
:10058000800313600A4A0A4B1B6843F08003136020
:1005900000BF0C37BD465DF8047B704708E10F4093
:1005A000286500402C650040006400402064004045
:1005B0001C65004080B483B000AF164A154B1B6821
:1005C00043F001031360134B1B687B60124A124B0C
:1005D0001B6823F020031360104A104B1B6823F4A0
:1005E000700313600E4A0E4B1B6843F02003136028
:1005F0000C4A0C4B1B6823F0200313600A4A0A4B79
:100600001B6843F02003136000BF0C37BD465DF844
:10061000047B704708E10F40284500402C4500400E
:1006200000440040204400401C45004080B483B09A
:1006300000AF164A154B1B6843F001031360134BC0
:100640001B687B60124A124B1B6823F04003136047
:10065000104A104B1B6823F0706313600E4A0E4B58
:100660001B6843F0400313600C4A0C4B1B6823F0DB
:10067000400313600A4A0A4B1B6843F040031360AF
:1006800000BF0C37BD465DF8047B704708E10F40A2
:10069000284500402C4500400044004020440040D4
:1006A0001C45004080B400AF044B1B6803F04003BE
:1006B0001846BD465DF8047B704700BFFC730040E0
:1006C00080B400AF044B1B6803F002031846BD461C
:1006D0005DF8047B704700BFFC73004080B400AF3E
:1006E000044B1B6803F004031846BD465DF8047B09
:1006F000704700BFFC73004080B400AF044B1B6820
:1007000003F008031846BD465DF8047B704700BF40
:10071000FC73004080B400AF044B1B6803F010036F
:100720001846BD465DF8047B704700BFFC6300407F
:1007300080B400AF044B1B6803F020031846BD468D
:100740005DF8047B704700BFFC63004080B500AFDC
:100750003E4801F075F8FF213D4801F062F84CF287
:10076000503001F09BF800220121394801F056F881
:100770003022F021364801F051F80222022134489B
:1007800001F04CF80A2001F089F8002202213048DB
:1007900001F044F84CF2503001F080F83022F021A2
:1007A0002B4801F03BF802220221294801F036F8DB
:1007B0000A2001F073F800220221254801F02EF8EA
:1007C0004CF2503001F06AF83022F021204801F05C
:1007D00025F8022202211E4801F020F80A2001F02B
:1007E0005DF8002202211A4801F018F84CF250304E
:1007F00001F054F82022F021154801F00FF80222F0
:100800000221134801F00AF80A2001F047F80022FB
:1008100002210F4801F002F84CF2503001F03EF88E
:10082000282000F017F8C02000F014F8062000F08F
:1008300011F8802000F00EF8282000F00BF80F20AF
:1008400000F008F800F0CEF800BF80BD02000020E4
:100850000050004080B582B000AF0346FB71FB79C9
:1008600023F00F03DBB21A46F0211E4800F0D6FF3A
:10087000002201211B4800F0D1FF02220221194869
:1008800000F0CCFF4CF2503001F008F800220221B9
:10089000144800F0C3FF4CF2503000F0FFFFFB792A
:1008A0001B01DBB21A46F0210E4800F0B7FF002210
:1008B00001210C4800F0B2FF02220221094800F099
:1008C000ADFF0A2000F0EAFF00220221054800F0F7
:1008D000A5FF4CF2503000F0E1FF00BF0837BD46E5
:1008E00080BD00BF0050004080B582B000AF03461D
:1008F000FB71FB7923F00F03DBB21A46F0211D4890
:1009000000F08CFF012201211A4800F087FF02222B
:100910000221184800F082FF0A2000F0BFFF0022E9
:100920000221144800F07AFF4CF2503000F0B6FF7C
:10093000FB791B01DBB21A46F0210E4800F06EFF76
:10094000012201210B4800F069FF0222022109481F
:1009500000F064FF0A2000F0A1FF002202210548F8
:1009600000F05CFF4CF2503000F098FF00BF0837F9
:10097000BD4680BD0050004080B582B000AF034648
:100980000A46FB711346BB7197F90730012B11D151
:1009900097F906305A1E124B1340002B03DA013B25
:1009A00063F00F030133DBB2803BDBB21846FFF785
:1009B00051FF10E097F906305A1E094B1340002BE7
:1009C00003DA013B63F00F030133DBB2403BDBB2E0
:1009D0001846FFF73FFF00BF0837BD4680BD00BF88
:1009E0000F00008080B500AF01210120FFF7C4FF98
:1009F000214B00221A6004E01F4B1B6801331E4A82
:100A000013601D4B1B681D4A9342F5D91C4800F02A
:100A100039F8194B00221A6004E0174B1B680133A8
:100A2000154A1360144B1B68144A9342F5D90121EF
:100A30000220FFF7A1FF104B00221A6004E00E4BCA
:100A40001B6801330C4A13600B4B1B680B4A934223
:100A5000F5D90B4800F016F8074B00221A6004E0A5
:100A6000054B1B680133044A1360034B1B68034AA0
:100A70009342F5D900BF80BD480200209F86010047
:100A8000D01A000080B582B000AF786008E07B68C3
:100A90005A1C7A6093F90030DBB21846FFF724FF46
:100AA0007B6893F90030002BF1D100BF0837BD46B9
:100AB00080BD00BF80B5A2B000AFFFF7D7FBFFF746
:100AC00011FCFFF74BFCFFF785FCFFF7BFFCFFF7BE
:100AD000F9FCFFF733FDFFF76DFDFFF7A7FDFFF70B
:100AE00035FEA44800F0DEFEA34AA34B1B6843F08A
:100AF00020031360A04B1B68FB62A04BA04A1A6046
:100B0000A04B01221A60A04B0E221A609F4B1122AB
:100B10001A609F4B1F221A609E4B1B6803F0010353
:100B2000C7F884300023C7F880300023FB67002318
:100B3000BB670023FB64AEE0FFF7B4FD0346002B68
:100B400025D0944A934B1B6843F0040313600023A1
:100B5000BB6202E0BB6A0133BB62BB6A8E4A93424E
:100B6000F8D98C4A8B4B1B6823F0040313600023D5
:100B7000BB6202E0BB6A0133BB62BB6A864A934236
:100B8000F8D9D7F880300133C7F880307DE0FFF71F
:100B900097FD0346002B23D07E4A7E4B1B6843F013
:100BA000040313600023BB6202E0BB6A0133BB6233
:100BB000BB6A794A9342F8D9764A764B1B6823F090
:100BC000040313600023BB6202E0BB6A0133BB6213
:100BD000BB6A714A9342F8D9FB6F0133FB6754E05B
:100BE000FFF77CFD0346002B23D06A4A694B1B6844
:100BF00043F0040313600023BB6202E0BB6A0133CD
:100C0000BB62BB6A644A9342F8D9624A614B1B6873
:100C100023F0040313600023BB6202E0BB6A0133CC
:100C2000BB62BB6A5C4A9342F8D9BB6F0133BB67B6
:100C30002BE0FFF77DFD0346002B26D0554A554B90
:100C40001B6843F0040313600023BB6202E0BB6A2D
:100C50000133BB62BB6A504A9342F8D94D4A4D4BAF
:100C60001B6823F0040313600023BB6202E0BB6A2D
:100C70000133BB62BB6A484A9342F8D90023C7F8E4
:100C800080300023FB670023BB67424B1B6803F0E7
:100C90000103C7F88430D7F88430002B7FF44CAFC1
:100CA000D7F8802013469B0013449A001A44FB6F28
:100CB000322101FB03F31A44BB6F642101FB03F3F0
:100CC0001344FB64FB6CBB6400237B6400233B6424
:100CD0000023FB63FA6C314B83FB02139910D3178B
:100CE000C91A0B469B000B445B00D31A7B64FB6C58
:100CF0002A4A82FB03129210DB17D31AFB64FA6CA8
:100D0000264B83FB02139910D317C91A0B469B007D
:100D10000B445B00D31A3B64FB6C204A82FB03123A
:100D20009210DB17D31AFB64FA6C1C4B83FB021383
:100D30009910D317C91A0B469B000B445B00D31ABA
:100D4000FB630023BB6202E0BB6A0133BB62BB6A88
:100D5000114A9342F8D907F120030A221946F86B89
:100D600000F072FE01210120FFF706FE0023BB62A6
:100D700019E000BF4005C00108E10F4020550240C6
:100D80004B434F4C24550240005402401055024042
:100D90001C550240FC5302403F420F0067666666E6
:100DA000BB6A0133BB62BB6AA14A9342F8D907F11F
:100DB00020031846FFF766FE0023BB6202E0BB6A11
:100DC0000133BB62BB6A9A4A9342F8D99948FFF74C
:100DD00059FE07F120030A221946386C00F034FE50
:100DE00007F120031846FFF74DFE0023BB6202E027
:100DF000BB6A0133BB62BB6A8D4A9342F8D907F1E3
:100E000020030A221946786C00F01EFE07F1200329
:100E10001846FFF737FE0023BB6202E0BB6A0133CE
:100E2000BB62BB6A824A9342F8D98348FFF72AFE25
:100E30000023BB6202E0BB6A0133BB62BB6A7F4A2C
:100E40009342F8D9FFF7CEFD0023BB6202E0BB6AF4
:100E50000133BB62BB6A7A4A9342F8D9012101206F
:100E6000FFF78AFD0023BB6202E0BB6A0133BB626D
:100E7000BB6A6F4A9342F8D97248FFF703FE00231A
:100E8000BB6202E0BB6A0133BB62BB6A684A934241
:100E9000F8D901210220FFF76FFD0023BB6202E0B9
:100EA000BB6A0133BB62BB6A614A9342F8D96648A8
:100EB000FFF7E8FD00237B6700233B670023FB6609
:100EC0000023BB6600237B660023BB630123C7F8B6
:100ED00084300CE1FFF7E6FB0346002B22D05B4A8F
:100EE0005A4B1B6843F0040313600023BB6202E00B
:100EF000BB6A0133BB62BB6A4D4A9342F8D9534A7D
:100F0000524B1B6823F0040313600023BB6202E012
:100F1000BB6A0133BB62BB6A454A9342F8D97B6F17
:100F200001337B67FFF7CCFB0346002B22D0474AF7
:100F3000464B1B6843F0040313600023BB6202E0CE
:100F4000BB6A0133BB62BB6A394A9342F8D93F4A54
:100F50003E4B1B6823F0040313600023BB6202E0D6
:100F6000BB6A0133BB62BB6A314A9342F8D93B6F1B
:100F700001333B67FFF7B2FB0346002B22D0334A15
:100F8000324B1B6843F0040313600023BB6202E092
:100F9000BB6A0133BB62BB6A254A9342F8D92B4A2C
:100FA0002A4B1B6823F0040313600023BB6202E09A
:100FB000BB6A0133BB62BB6A1D4A9342F8D9FB6E20
:100FC0000133FB66FFF798FB0346002B22D01F4A34
:100FD0001E4B1B6843F0040313600023BB6202E056
:100FE000BB6A0133BB62BB6A114A9342F8D9174A04
:100FF000164B1B6823F0040313600023BB6202E05E
:10100000BB6A0133BB62BB6A094A9342F8D9BB6E23
:101010000133BB66FFF77EFB0346002B32D00B4A41
:101020000A4B1B6843F0040313600023BB6212E009
:101030003F420F00E41A0000E81A00007F96980073
:101040009F860100F81A00000C1B0000FC530240B0
:10105000BB6A0133BB62BB6AA24A9342F8D9A24A77
:10106000A14B1B6823F0040313600023BB6202E062
:10107000BB6A0133BB62BB6A9A4A9342F8D97B6E62
:1010800001337B66FFF754FB0346002B29D0964AB9
:10109000954B1B6843F0040313600023BB6202E01E
:1010A000BB6A0133BB62BB6A8E4A9342F8D98E4A4F
:1010B0008D4B1B6823F0040313600023BB6202E026
:1010C000BB6A0133BB62BB6A864A9342F8D90023EC
:1010D0007B6700233B670023FB660023BB6600237E
:1010E0007B66814B1B6803F00103C7F88430D7F897
:1010F0008430002B7FF4EEAE7B6F322202FB03F2D2
:101100003B6F642101FB03F31A44FB6E962101FB44
:1011100003F31A44BB6EAF2101FB03F31A447B6E49
:10112000C82101FB03F31344BB63BA6BBB6C9A4247
:1011300038DDFFF757FC0023BB6202E0BB6A0133D6
:10114000BB62BB6A674A9342F8D901210120FFF7CD
:1011500013FC0023BB6202E0BB6A0133BB62BB6AC3
:10116000604A9342F8D96148FFF78CFC0023BB62C8
:1011700002E0BB6A0133BB62BB6A5A4A9342F8D9A8
:1011800001210220FFF7F8FB0023BB6202E0BB6AEB
:101190000133BB62BB6A534A9342F8D95448FFF704
:1011A00071FCFEE7D7F88020FB6F1A44BB6F1A442E
:1011B0007B6F1A443B6F1A44FB6E1A44BB6E1A4491
:1011C0007B6E1A444B4B1340002B03DA013B63F058
:1011D0000303013301337B637B6B022B23D1FFF7C6
:1011E00001FC0023BB6202E0BB6A0133BB62BB6A45
:1011F0003C4A9342F8D901210120FFF7BDFB0023AF
:10120000BB6202E0BB6A0133BB62BB6A354A9342F0
:10121000F8D93948FFF736FC334A334B1B6843F0A3
:1012200002031360F8E77B6B022B1FD02E4A2E4B74
:101230001B6843F0080313600023BB6202E0BB6A33
:101240000133BB62BB6A2D4A9342F8D9264A264B2A
:101250001B6823F0080313600023BB6202E0BB6A33
:101260000133BB62BB6A1F4A9342F8D907F10803F6
:1012700000221A605A609A60DA601A615A617B6FC4
:10128000FB603B6F3B61FB6E7B61BB6EBB617B6E4A
:10129000FB6101233B664DE019493A6E13465B0042
:1012A00013449B000B4404331A683B6E9B0007F108
:1012B00088010B4453F8803C9A4238DAFFF792FBDE
:1012C0000023BB6202E0BB6A0133BB62BB6A054A12
:1012D0009342F8D901210120FFF74EFB0023BB62A6
:1012E00013E000BF3F420F00FC5302401C1B0000F4
:1012F000281B000003000080381B00007F841E00B4
:1013000000000020BB6A0133BB62BB6AA54A93425E
:10131000F8D9A548FFF7B6FB0023BB6202E0BB6A21
:101320000133BB62BB6A9F4A9342F8D9FEE73B6E2A
:1013300001333B663B6E052BAEDDBA6CBB6BD31A3B
:10134000FB650023BB6500237B6500233B65FB6DCC
:10135000632B13DDFB6D954A82FB03125211DB17E1
:10136000D31A3B65FB6D914A82FB03125111DA17C8
:101370008A1A642101FB02F29B1AFB65FB6D312B7B
:1013800013DDFB6D894A82FB03121211DB17D31A9E
:101390007B65FB6D854A82FB03121111DA178A1AED
:1013A000322101FB02F29B1AFB65FB6D182B15DD48
:1013B000FB6D7E4A82FB0312D210DB17D31ABB658A
:1013C000FA6D7A4B83FB0213D910D317C91A0B4657
:1013D0009B000B4499000B44D31AFB65744B9A682D
:1013E0003B6D9A420EDA724B9B683A6DD31A3B659D
:1013F0006F4B00229A603B6D5B007A6D13447B65F6
:1014000000233B656A4B5A687B6D9A420EDA684B43
:101410005B687A6DD31A7B65654B00225A607B6DE1
:101420005B00BA6D1344BB6500237B65604B1A6893
:10143000BB6D9A4238DAFFF7D5FA0023BB6202E0AF
:10144000BB6A0133BB62BB6A564A9342F8D9012199
:101450000120FFF791FA0023BB6202E0BB6A01336F
:10146000BB62BB6A4F4A9342F8D95248FFF70AFB66
:101470000023BB6202E0BB6A0133BB62BB6A494A1C
:101480009342F8D901210220FFF776FA0023BB62CC
:1014900002E0BB6A0133BB62BB6A424A9342F8D99D
:1014A0004548FFF7EFFAFEE7414B9A683B6DD21AC9
:1014B000BB6F13443E4A93603D4B5A687B6DD21A12
:1014C000FB6F13443A4A5360394B1A68BB6DD21A0A
:1014D000D7F880301344364A1360FFF783FA0023AD
:1014E000BB6202E0BB6A0133BB62BB6A2D4A934216
:1014F000F8D9BA6CBB6BD31A3B6300237B6400231F
:101500003B640023FB633A6B2C4B83FB0213991063
:10151000D317C91A0B469B000B445B00D31A7B649C
:101520003B6B264A82FB03129210DB17D31A3B63F4
:101530003A6B224B83FB02139910D317C91A0B463F
:101540009B000B445B00D31A3B643B6B1B4A82FB42
:1015500003129210DB17D31A3B633A6B174B83FBD2
:1015600002139910D317C91A0B469B000B445B005A
:10157000D31AFB630023BB6202E0BB6A0133BB6288
:10158000BB6A084A9342F8D93B460A221946F86BCF
:1015900000F05AFA01210120FFF7EEF90023BB62A7
:1015A00011E000BF3F420F00481B00001F85EB51B8
:1015B000000000205C1B00006C1B00006766666674
:1015C000BB6A0133BB62BB6A2F4A9342F8D93B46E0
:1015D0001846FFF757FA0023BB6202E0BB6A0133EB
:1015E000BB62BB6A284A9342F8D92848FFF74AFAF7
:1015F0003B460A221946386C00F026FA3B4618464C
:10160000FFF740FA0023BB6202E0BB6A0133BB6212
:10161000BB6A1D4A9342F8D93B460A221946786CA8
:1016200000F012FA3B461846FFF72CFA0023BB6283
:1016300002E0BB6A0133BB62BB6A134A9342F8D92A
:101640001348FFF71FFA0023BB6202E0BB6A0133B5
:10165000BB62BB6A0F4A9342F8D901210220FFF70F
:101660008BF90023BB6202E0BB6A0133BB62BB6A39
:10167000084A9342F8D90848FFF704FA00231846AD
:101680008837BD4680BD00BF3F420F00E41A00000E
:10169000781B00003F4B4C007C1B000080B582B0E3
:1016A00000AF134B7B60134B3B6007E03B681A1D98
:1016B0003A607A68111D796012681A603B680E4AB8
:1016C0009342F3D30E480F494FF000028842B8BF4F
:1016D00040F8042BFADB094A084B1B6843F47003FB
:1016E0001360FFF7E7F900BF0837BD4680BD00BFB4
:1016F000D41B0000000000204800002088ED00E01E
:10170000480000204C02002080B400AFFEE700BF7C
:1017100080B400AFFEE700BF80B400AFFEE700BFBB
:10172000D0F8003412F0010F10B500F5806414BF3A
:101730000B438B43236012F0020FD0F8202400F5F6
:10174000846314BF114322EA0101196010BD30B552
:10175000D0F8004512F0010F00F5A06514BF0C434E
:101760008C432C60D0F8045500F5A06412F0020FF1
:1017700004F1040414BF0D438D432560D0F80845DF
:1017800012F0040F00F5A16514BF0C438C432C60CC
:1017900012F0080FD0F8182500F5A36414BF0A430F
:1017A0008A432260D0F80C4500F5A06213F0010FC7
:1017B00002F10C0214BF0C438C431460D0F81025C6
:1017C00013F0020F00F5A26414BF0A438A4322609B
:1017D000D0F8144500F5A26213F0040F02F10402E0
:1017E00014BF0C438C431460D0F81C4500F5A26272
:1017F00013F0080F02F10C0214BF0C438C43146069
:1018000000F5A56223B9D0F8283543EA010103E0C9
:10181000D0F8283523EA0101116030BD40F82120BD
:10182000704770B50122082305460C46FFF78FFF6D
:10183000284621460122BDE87040FFF771BF000035
:1018400000F07043B3F1704F15D100F47F42114B9B
:10185000120A00F0FF00D318800003F0704240F03D
:10186000007023F07F43104323F4700340EA4313D6
:1018700001221A607047020F074B53F8223081B2E1
:1018800000F4F8101A68000C11FA00F01043186008
:10189000704700BF00E60F40881B00000138FDD1F3
:1018A00070470000534B1A6812F0E04F2DE9F041E9
:1018B000044606D01A68504B02EA0303B3F1805F76
:1018C00002D1002CC0F294804C494D4A0B68166836
:1018D00043F4006323F4800546F4006613F0020F1E
:1018E0000D60166002D014F0020F05D015F0010F44
:1018F0001AD014F0010F17D164F003031D403F4BC1
:10190000002E1D6005DA06F07003302B05D0702B19
:1019100002E005F03003302B02D14FF4805001E09B
:101920004FF40020FFF7BAFF04F4FE6325F4FE65D0
:1019300045EA0308334D324F26F0004604EA050518
:1019400026F0700645EA060604F0080546EAC505D5
:101950002A4E1020C6F800803D60FFF79FFF28F454
:10196000405804F40052284904F4405325F400552B
:1019700048EA030340201543244A086052BF3360FD
:101980003D60336023F0F86304EA020223F00303AE
:1019900058BF3D60134304F0FC5125F0FC5214F095
:1019A000804F42EA010208D0194922F4800204EA79
:1019B000010143F480030A4301E022F0804214F461
:1019C000006F0CD14FF400411248006810F0400F36
:1019D00001D10139F8D123F4006322F400620749F0
:1019E0000B60074B10201A60BDE8F041FFF756BFAF
:1019F000BDE8F08100E00F400000FF7060E00F40A4
:101A000070E00F403000008058E00F400300C00736
:101A10000000404050E00F40931E222B10D80A2AAD
:101A200010B506D000230C46194400F00FF82046EC
:101A300010BD0028F6DA2D230B7040420123F2E797
:101A400000200870704700BFFFF7E6BFF0B5DFF871
:101A500078E0164604460F46BEE80F008BB06D4690
:101A60000FC5BEE80F000FC59EE80300B31E45F882
:101A7000040B222B297022D87D1E2846002200E06C
:101A80001A46B4FBF6F10AAB06FB114423440C469C
:101A900013F8283C00F8013F531C0029F0D1F954F9
:101AA000BB184AB1197815F8010F29700134111BC0
:101AB0008C4203F80109F5DB38460BB0F0BD00207D
:101AC00038700BB0F0BD00BF941B0000FFF7BEBF25
:101AD0002020202020202020202020202020202006
:101AE000000000002E00000020544C204174746956
:101AF0006E697A2E00000000312D537520322D437F
:101B0000617920332D42697300000000342D436950
:101B10006B6F20352D4B616876650000456B7369EE
:101B20006B2070617261000054656B72617220619C
:101B300074696E697A000000506172612054616BB3
:101B4000696C64690000000059657465726C6920F5
:101B50007572756E20796F6B000000004B617361C8
:101B600064612079657465726C69000070617261EE
:101B700020796F6B2E00000020544C005061726180
:101B8000205573747500000000E10F4004E10F4020
:101B900008E10F403031323334353637383961623D
:101BA000636465666768696A6B6C6D6E6F7071728D
:101BB000737475767778797A00000000F8B500BF05
:101BC000F8BC08BC9E467047F8B500BFF8BC08BC1E
:041BD0009E46704776
:101BD40014000000140000000A00000001000000CE
:101BE4001E0000003200000002000000140000008B
:101BF40064000000030000000F00000096000000D5
:101C04000400000032000000AF00000005000000E6
:081C140064000000C80000009C
:00000001FF
